{
  "_format": "hh-sol-artifact-1",
  "contractName": "UIHubNew",
  "sourceName": "contracts/My Comtracts/UIHubNew.sol",
  "abi": [
    {
      "inputs": [
        {
          "internalType": "string",
          "name": "_thumbnail",
          "type": "string"
        },
        {
          "internalType": "string",
          "name": "_fileName",
          "type": "string"
        },
        {
          "internalType": "uint256",
          "name": "_fileValue",
          "type": "uint256"
        },
        {
          "internalType": "string",
          "name": "_file",
          "type": "string"
        }
      ],
      "name": "addFiles",
      "outputs": [],
      "stateMutability": "nonpayable",
      "type": "function"
    },
    {
      "inputs": [
        {
          "internalType": "address",
          "name": "",
          "type": "address"
        }
      ],
      "name": "addressToUser",
      "outputs": [
        {
          "internalType": "address",
          "name": "user",
          "type": "address"
        },
        {
          "internalType": "string",
          "name": "profileImg",
          "type": "string"
        },
        {
          "internalType": "string",
          "name": "name",
          "type": "string"
        },
        {
          "internalType": "string",
          "name": "About",
          "type": "string"
        },
        {
          "internalType": "string",
          "name": "twitter",
          "type": "string"
        },
        {
          "internalType": "string",
          "name": "LinkedIn",
          "type": "string"
        },
        {
          "internalType": "string",
          "name": "Postfolio",
          "type": "string"
        }
      ],
      "stateMutability": "view",
      "type": "function"
    },
    {
      "inputs": [
        {
          "internalType": "uint256",
          "name": "",
          "type": "uint256"
        }
      ],
      "name": "allDesigners",
      "outputs": [
        {
          "internalType": "address",
          "name": "designer",
          "type": "address"
        }
      ],
      "stateMutability": "view",
      "type": "function"
    },
    {
      "inputs": [
        {
          "internalType": "uint256",
          "name": "",
          "type": "uint256"
        }
      ],
      "name": "allDesigns",
      "outputs": [
        {
          "internalType": "address",
          "name": "creator",
          "type": "address"
        },
        {
          "internalType": "string",
          "name": "PostType",
          "type": "string"
        },
        {
          "internalType": "string",
          "name": "thumbnail",
          "type": "string"
        },
        {
          "internalType": "string",
          "name": "name",
          "type": "string"
        },
        {
          "internalType": "string",
          "name": "description",
          "type": "string"
        }
      ],
      "stateMutability": "view",
      "type": "function"
    },
    {
      "inputs": [
        {
          "internalType": "uint256",
          "name": "",
          "type": "uint256"
        }
      ],
      "name": "allFiles",
      "outputs": [
        {
          "internalType": "string",
          "name": "fileThumbnail",
          "type": "string"
        },
        {
          "internalType": "string",
          "name": "fileName",
          "type": "string"
        },
        {
          "internalType": "uint256",
          "name": "fileValue",
          "type": "uint256"
        },
        {
          "internalType": "string",
          "name": "file",
          "type": "string"
        },
        {
          "internalType": "bool",
          "name": "sold",
          "type": "bool"
        }
      ],
      "stateMutability": "view",
      "type": "function"
    },
    {
      "inputs": [
        {
          "internalType": "uint256",
          "name": "",
          "type": "uint256"
        }
      ],
      "name": "allUsers",
      "outputs": [
        {
          "internalType": "address",
          "name": "user",
          "type": "address"
        },
        {
          "internalType": "string",
          "name": "profileImg",
          "type": "string"
        },
        {
          "internalType": "string",
          "name": "name",
          "type": "string"
        },
        {
          "internalType": "string",
          "name": "About",
          "type": "string"
        },
        {
          "internalType": "string",
          "name": "twitter",
          "type": "string"
        },
        {
          "internalType": "string",
          "name": "LinkedIn",
          "type": "string"
        },
        {
          "internalType": "string",
          "name": "Postfolio",
          "type": "string"
        }
      ],
      "stateMutability": "view",
      "type": "function"
    },
    {
      "inputs": [
        {
          "internalType": "string",
          "name": "_thumbnailOfFile",
          "type": "string"
        },
        {
          "internalType": "uint256",
          "name": "_indexOfFile",
          "type": "uint256"
        }
      ],
      "name": "buyDesign",
      "outputs": [],
      "stateMutability": "payable",
      "type": "function"
    },
    {
      "inputs": [
        {
          "internalType": "string",
          "name": "_thumbnail",
          "type": "string"
        }
      ],
      "name": "getAddedFiles",
      "outputs": [
        {
          "components": [
            {
              "internalType": "string",
              "name": "fileThumbnail",
              "type": "string"
            },
            {
              "internalType": "string",
              "name": "fileName",
              "type": "string"
            },
            {
              "internalType": "uint256",
              "name": "fileValue",
              "type": "uint256"
            },
            {
              "internalType": "string",
              "name": "file",
              "type": "string"
            },
            {
              "internalType": "bool",
              "name": "sold",
              "type": "bool"
            }
          ],
          "internalType": "struct UIHubNew.AddedFile[]",
          "name": "",
          "type": "tuple[]"
        }
      ],
      "stateMutability": "view",
      "type": "function"
    },
    {
      "inputs": [],
      "name": "getAllDesigns",
      "outputs": [
        {
          "components": [
            {
              "internalType": "address",
              "name": "creator",
              "type": "address"
            },
            {
              "internalType": "string",
              "name": "PostType",
              "type": "string"
            },
            {
              "internalType": "string",
              "name": "thumbnail",
              "type": "string"
            },
            {
              "internalType": "string",
              "name": "name",
              "type": "string"
            },
            {
              "internalType": "string",
              "name": "description",
              "type": "string"
            }
          ],
          "internalType": "struct UIHubNew.Post[]",
          "name": "",
          "type": "tuple[]"
        }
      ],
      "stateMutability": "view",
      "type": "function"
    },
    {
      "inputs": [
        {
          "internalType": "string",
          "name": "_thumbnailOfFile",
          "type": "string"
        }
      ],
      "name": "getCreator",
      "outputs": [
        {
          "internalType": "address",
          "name": "",
          "type": "address"
        }
      ],
      "stateMutability": "view",
      "type": "function"
    },
    {
      "inputs": [
        {
          "internalType": "string",
          "name": "_thumbnail",
          "type": "string"
        },
        {
          "internalType": "uint256",
          "name": "_indexOfFile",
          "type": "uint256"
        }
      ],
      "name": "getFileValue",
      "outputs": [
        {
          "internalType": "uint256",
          "name": "",
          "type": "uint256"
        }
      ],
      "stateMutability": "view",
      "type": "function"
    },
    {
      "inputs": [
        {
          "internalType": "address",
          "name": "_add",
          "type": "address"
        }
      ],
      "name": "getMyNfts",
      "outputs": [
        {
          "components": [
            {
              "internalType": "address",
              "name": "creator",
              "type": "address"
            },
            {
              "internalType": "string",
              "name": "PostType",
              "type": "string"
            },
            {
              "internalType": "string",
              "name": "thumbnail",
              "type": "string"
            },
            {
              "internalType": "string",
              "name": "name",
              "type": "string"
            },
            {
              "internalType": "string",
              "name": "fileName",
              "type": "string"
            },
            {
              "internalType": "string",
              "name": "file",
              "type": "string"
            }
          ],
          "internalType": "struct UIHubNew.NFT[]",
          "name": "",
          "type": "tuple[]"
        }
      ],
      "stateMutability": "view",
      "type": "function"
    },
    {
      "inputs": [
        {
          "internalType": "address",
          "name": "_add",
          "type": "address"
        }
      ],
      "name": "getUser",
      "outputs": [
        {
          "components": [
            {
              "internalType": "address",
              "name": "user",
              "type": "address"
            },
            {
              "internalType": "string",
              "name": "profileImg",
              "type": "string"
            },
            {
              "internalType": "string",
              "name": "name",
              "type": "string"
            },
            {
              "internalType": "string",
              "name": "About",
              "type": "string"
            },
            {
              "internalType": "string",
              "name": "twitter",
              "type": "string"
            },
            {
              "internalType": "string",
              "name": "LinkedIn",
              "type": "string"
            },
            {
              "internalType": "string",
              "name": "Postfolio",
              "type": "string"
            }
          ],
          "internalType": "struct UIHubNew.UserProfile",
          "name": "",
          "type": "tuple"
        }
      ],
      "stateMutability": "view",
      "type": "function"
    },
    {
      "inputs": [
        {
          "internalType": "string",
          "name": "_fileType",
          "type": "string"
        },
        {
          "internalType": "string",
          "name": "_thumbnail",
          "type": "string"
        },
        {
          "internalType": "string",
          "name": "_name",
          "type": "string"
        },
        {
          "internalType": "string",
          "name": "_description",
          "type": "string"
        }
      ],
      "name": "postDesign",
      "outputs": [],
      "stateMutability": "nonpayable",
      "type": "function"
    },
    {
      "inputs": [
        {
          "internalType": "string",
          "name": "_profilImg",
          "type": "string"
        },
        {
          "internalType": "string",
          "name": "_name",
          "type": "string"
        },
        {
          "internalType": "string",
          "name": "_about",
          "type": "string"
        },
        {
          "internalType": "string",
          "name": "_twitter",
          "type": "string"
        },
        {
          "internalType": "string",
          "name": "_linkedIn",
          "type": "string"
        },
        {
          "internalType": "string",
          "name": "_portfolio",
          "type": "string"
        }
      ],
      "name": "setProfile",
      "outputs": [],
      "stateMutability": "nonpayable",
      "type": "function"
    },
    {
      "inputs": [
        {
          "internalType": "address",
          "name": "",
          "type": "address"
        }
      ],
      "name": "users",
      "outputs": [
        {
          "internalType": "address",
          "name": "nftOwner",
          "type": "address"
        }
      ],
      "stateMutability": "view",
      "type": "function"
    }
  ],
  "bytecode": "0x608060405234801561001057600080fd5b5061325a806100206000396000f3fe6080604052600436106100f35760003560e01c8063a87430ba1161008a578063edf5388611610059578063edf53886146102dd578063f6c1b77a146102fd578063fa6455051461032a578063fc8f3f331461035757600080fd5b8063a87430ba14610229578063aacfc92e1461026c578063af0b77c61461028c578063b43cf7ee146102ac57600080fd5b80637eb4a1d7116100c65780637eb4a1d714610192578063817e1cc5146101a5578063a2bdedf4146101c5578063a7b1f7c0146101f857600080fd5b80630ac5797e146100f85780633840cf701461011a5780634d57537b146101455780636f77926b14610165575b600080fd5b34801561010457600080fd5b506101186101133660046125cf565b610384565b005b34801561012657600080fd5b5061012f6104bc565b60405161013c919061286c565b60405180910390f35b34801561015157600080fd5b5061011861016036600461287d565b610779565b34801561017157600080fd5b5061018561018036600461296e565b610a9a565b60405161013c9190612a3d565b6101186101a0366004612a5f565b610efd565b3480156101b157600080fd5b506101186101c0366004612ab6565b6113b4565b3480156101d157600080fd5b506101e56101e0366004612b32565b611476565b60405161013c9796959493929190612b53565b34801561020457600080fd5b50610218610213366004612b32565b6117fe565b60405161013c959493929190612bf2565b34801561023557600080fd5b5061025f61024436600461296e565b6004602052600090815260409020546001600160a01b031681565b60405161013c9190612c51565b34801561027857600080fd5b5061025f610287366004612b32565b6119df565b34801561029857600080fd5b5061025f6102a7366004612c5f565b611a0e565b3480156102b857600080fd5b506102cc6102c7366004612b32565b611b2d565b60405161013c959493929190612c9a565b3480156102e957600080fd5b506101e56102f836600461296e565b611d99565b34801561030957600080fd5b5061031d61031836600461296e565b611dc5565b60405161013c9190612dfa565b34801561033657600080fd5b5061034a610345366004612c5f565b61212d565b60405161013c9190612ee4565b34801561036357600080fd5b50610377610372366004612a5f565b61245a565b60405161013c9190612ef5565b6040805160e08101825233815260208101888152918101879052606081018690526080810185905260a0810184905260c081018390526002805460018101825560009190915281517f405787fa12a823e0f2b7631cc41b3ba8828b3321ca811111fa75cd3aa3bb5ace600790920291820180546001600160a01b0319166001600160a01b0390921691909117815592519192839290917f405787fa12a823e0f2b7631cc41b3ba8828b3321ca811111fa75cd3aa3bb5acf01906104479082612fe8565b506040820151600282019061045c9082612fe8565b50606082015160038201906104719082612fe8565b50608082015160048201906104869082612fe8565b5060a0820151600582019061049b9082612fe8565b5060c082015160068201906104b09082612fe8565b50505050505050505050565b60606000805480602002602001604051908101604052809291908181526020016000905b828210156107705760008481526020908190206040805160a081019091526005850290910180546001600160a01b03168252600181018054929391929184019161052990612f19565b80601f016020809104026020016040519081016040528092919081815260200182805461055590612f19565b80156105a25780601f10610577576101008083540402835291602001916105a2565b820191906000526020600020905b81548152906001019060200180831161058557829003601f168201915b505050505081526020016002820180546105bb90612f19565b80601f01602080910402602001604051908101604052809291908181526020018280546105e790612f19565b80156106345780601f1061060957610100808354040283529160200191610634565b820191906000526020600020905b81548152906001019060200180831161061757829003601f168201915b5050505050815260200160038201805461064d90612f19565b80601f016020809104026020016040519081016040528092919081815260200182805461067990612f19565b80156106c65780601f1061069b576101008083540402835291602001916106c6565b820191906000526020600020905b8154815290600101906020018083116106a957829003601f168201915b505050505081526020016004820180546106df90612f19565b80601f016020809104026020016040519081016040528092919081815260200182805461070b90612f19565b80156107585780601f1061072d57610100808354040283529160200191610758565b820191906000526020600020905b81548152906001019060200180831161073b57829003601f168201915b505050505081525050815260200190600101906104e0565b50505050905090565b6040805160a0810182523381526020810186815291810185905260608101849052608081018390526000805460018101825590805281517f290decd9548b62a8d60345a988386fc84ba6bc95484008f6362f93160ef3e563600590920291820180546001600160a01b0319166001600160a01b0390921691909117815592519192839290917f290decd9548b62a8d60345a988386fc84ba6bc95484008f6362f93160ef3e564019061082b9082612fe8565b50604082015160028201906108409082612fe8565b50606082015160038201906108559082612fe8565b506080820151600482019061086a9082612fe8565b5060009150819050805b60035481101561098957336001600160a01b03166003828154811061089b5761089b6130ac565b60009182526020909120600290910201546001600160a01b03160361097757600381815481106108cd576108cd6130ac565b60009182526020808320600160029093020182018054808401825590845292819020875160059094020180546001600160a01b039094166001600160a01b03199094169390931783558601518692918201906109299082612fe8565b506040820151600282019061093e9082612fe8565b50606082015160038201906109539082612fe8565b50608082015160048201906109689082612fe8565b50505060019250809150610989565b80610981816130d8565b915050610874565b5081610a91576003805460018181019092556002027fc2575a0e9e593c00f959f8c92f12db2869c3395a3b0502d05e2516446f71f85b810180546001600160a01b0319908116331782557fc2575a0e9e593c00f959f8c92f12db2869c3395a3b0502d05e2516446f71f85c909201805480850182556000918252602091829020885160059092020180546001600160a01b039290921691909416178355860151909286929190820190610a3c9082612fe8565b5060408201516002820190610a519082612fe8565b5060608201516003820190610a669082612fe8565b5060808201516004820190610a7b9082612fe8565b5050600354610a8d91506001906130f2565b9150505b50505050505050565b610ae36040518060e0016040528060006001600160a01b031681526020016060815260200160608152602001606081526020016060815260200160608152602001606081525090565b60005b600254811015610ef757600060028281548110610b0557610b056130ac565b60009182526020909120600790910201546001600160a01b0390811691508416819003610ee45760028281548110610b3f57610b3f6130ac565b60009182526020918290206040805160e0810190915260079092020180546001600160a01b031682526001810180549293919291840191610b7f90612f19565b80601f0160208091040260200160405190810160405280929190818152602001828054610bab90612f19565b8015610bf85780601f10610bcd57610100808354040283529160200191610bf8565b820191906000526020600020905b815481529060010190602001808311610bdb57829003601f168201915b50505050508152602001600282018054610c1190612f19565b80601f0160208091040260200160405190810160405280929190818152602001828054610c3d90612f19565b8015610c8a5780601f10610c5f57610100808354040283529160200191610c8a565b820191906000526020600020905b815481529060010190602001808311610c6d57829003601f168201915b50505050508152602001600382018054610ca390612f19565b80601f0160208091040260200160405190810160405280929190818152602001828054610ccf90612f19565b8015610d1c5780601f10610cf157610100808354040283529160200191610d1c565b820191906000526020600020905b815481529060010190602001808311610cff57829003601f168201915b50505050508152602001600482018054610d3590612f19565b80601f0160208091040260200160405190810160405280929190818152602001828054610d6190612f19565b8015610dae5780601f10610d8357610100808354040283529160200191610dae565b820191906000526020600020905b815481529060010190602001808311610d9157829003601f168201915b50505050508152602001600582018054610dc790612f19565b80601f0160208091040260200160405190810160405280929190818152602001828054610df390612f19565b8015610e405780601f10610e1557610100808354040283529160200191610e40565b820191906000526020600020905b815481529060010190602001808311610e2357829003601f168201915b50505050508152602001600682018054610e5990612f19565b80601f0160208091040260200160405190810160405280929190818152602001828054610e8590612f19565b8015610ed25780601f10610ea757610100808354040283529160200191610ed2565b820191906000526020600020905b815481529060010190602001808311610eb557829003601f168201915b50505050508152505092505050919050565b5080610eef816130d8565b915050610ae6565b50919050565b6000610f088361212d565b905080518210610f335760405162461bcd60e51b8152600401610f2a9061313c565b60405180910390fd5b6000818381518110610f4757610f476130ac565b6020026020010151604001519050600060046000336001600160a01b03166001600160a01b03168152602001908152602001600020905060006060806000868881518110610f9757610f976130ac565b60200260200101516020015190506000878981518110610fb957610fb96130ac565b602002602001015160600151905060005b60005481101561123a576000808281548110610fe857610fe86130ac565b9060005260206000209060050201600201805461100490612f19565b80601f016020809104026020016040519081016040528092919081815260200182805461103090612f19565b801561107d5780601f106110525761010080835404028352916020019161107d565b820191906000526020600020905b81548152906001019060200180831161106057829003601f168201915b505050505090508b8051906020012081805190602001200361122757600082815481106110ac576110ac6130ac565b6000918252602082206005909102015481546001600160a01b039091169850839081106110db576110db6130ac565b906000526020600020906005020160030180546110f790612f19565b80601f016020809104026020016040519081016040528092919081815260200182805461112390612f19565b80156111705780601f1061114557610100808354040283529160200191611170565b820191906000526020600020905b81548152906001019060200180831161115357829003601f168201915b505050505094506000828154811061118a5761118a6130ac565b906000526020600020906005020160010180546111a690612f19565b80601f01602080910402602001604051908101604052809291908181526020018280546111d290612f19565b801561121f5780601f106111f45761010080835404028352916020019161121f565b820191906000526020600020905b81548152906001019060200180831161120257829003601f168201915b505050505095505b5080611232816130d8565b915050610fca565b50600061124f88670de0b6b3a764000061314c565b9050803410156112715760405162461bcd60e51b8152600401610f2a90613196565b6040516001600160a01b038716903480156108fc02916000818181858888f193505050501580156112a6573d6000803e3d6000fd5b506040805160c0810182526001600160a01b03888116825260208083018981529383018f9052606083018890526080830187905260a0830186905260018b8101805480830182556000918252929020845160069093020180546001600160a01b03191692909316919091178255925191928392908201906113279082612fe8565b506040820151600282019061133c9082612fe8565b50606082015160038201906113519082612fe8565b50608082015160048201906113669082612fe8565b5060a0820151600582019061137b9082612fe8565b50505060018a8c81518110611392576113926130ac565b6020908102919091010151901515608090910152505050505050505050505050565b6040805160a08101825285815260208101859052908101839052606081018290526000608082018190526001805480820182559152815182916005027fb10e2d527612073b26eecdfd717e6a320cf44b4afac2b0732d9fcbe2b7fa0cf60190819061141f9082612fe8565b50602082015160018201906114349082612fe8565b5060408201516002820155606082015160038201906114539082612fe8565b50608091909101516004909101805460ff19169115159190911790555050505050565b6002818154811061148657600080fd5b6000918252602090912060079091020180546001820180546001600160a01b039092169350906114b590612f19565b80601f01602080910402602001604051908101604052809291908181526020018280546114e190612f19565b801561152e5780601f106115035761010080835404028352916020019161152e565b820191906000526020600020905b81548152906001019060200180831161151157829003601f168201915b50505050509080600201805461154390612f19565b80601f016020809104026020016040519081016040528092919081815260200182805461156f90612f19565b80156115bc5780601f10611591576101008083540402835291602001916115bc565b820191906000526020600020905b81548152906001019060200180831161159f57829003601f168201915b5050505050908060030180546115d190612f19565b80601f01602080910402602001604051908101604052809291908181526020018280546115fd90612f19565b801561164a5780601f1061161f5761010080835404028352916020019161164a565b820191906000526020600020905b81548152906001019060200180831161162d57829003601f168201915b50505050509080600401805461165f90612f19565b80601f016020809104026020016040519081016040528092919081815260200182805461168b90612f19565b80156116d85780601f106116ad576101008083540402835291602001916116d8565b820191906000526020600020905b8154815290600101906020018083116116bb57829003601f168201915b5050505050908060050180546116ed90612f19565b80601f016020809104026020016040519081016040528092919081815260200182805461171990612f19565b80156117665780601f1061173b57610100808354040283529160200191611766565b820191906000526020600020905b81548152906001019060200180831161174957829003601f168201915b50505050509080600601805461177b90612f19565b80601f01602080910402602001604051908101604052809291908181526020018280546117a790612f19565b80156117f45780601f106117c9576101008083540402835291602001916117f4565b820191906000526020600020905b8154815290600101906020018083116117d757829003601f168201915b5050505050905087565b6001818154811061180e57600080fd5b906000526020600020906005020160009150905080600001805461183190612f19565b80601f016020809104026020016040519081016040528092919081815260200182805461185d90612f19565b80156118aa5780601f1061187f576101008083540402835291602001916118aa565b820191906000526020600020905b81548152906001019060200180831161188d57829003601f168201915b5050505050908060010180546118bf90612f19565b80601f01602080910402602001604051908101604052809291908181526020018280546118eb90612f19565b80156119385780601f1061190d57610100808354040283529160200191611938565b820191906000526020600020905b81548152906001019060200180831161191b57829003601f168201915b50505050509080600201549080600301805461195390612f19565b80601f016020809104026020016040519081016040528092919081815260200182805461197f90612f19565b80156119cc5780601f106119a1576101008083540402835291602001916119cc565b820191906000526020600020905b8154815290600101906020018083116119af57829003601f168201915b5050506004909301549192505060ff1685565b600381815481106119ef57600080fd5b60009182526020909120600290910201546001600160a01b0316905081565b60008060005b600054811015611b26576000808281548110611a3257611a326130ac565b90600052602060002090600502016002018054611a4e90612f19565b80601f0160208091040260200160405190810160405280929190818152602001828054611a7a90612f19565b8015611ac75780601f10611a9c57610100808354040283529160200191611ac7565b820191906000526020600020905b815481529060010190602001808311611aaa57829003601f168201915b505050505090508480519060200120818051906020012003611b135760008281548110611af657611af66130ac565b60009182526020909120600590910201546001600160a01b031692505b5080611b1e816130d8565b915050611a14565b5092915050565b60008181548110611b3d57600080fd5b6000918252602090912060059091020180546001820180546001600160a01b03909216935090611b6c90612f19565b80601f0160208091040260200160405190810160405280929190818152602001828054611b9890612f19565b8015611be55780601f10611bba57610100808354040283529160200191611be5565b820191906000526020600020905b815481529060010190602001808311611bc857829003601f168201915b505050505090806002018054611bfa90612f19565b80601f0160208091040260200160405190810160405280929190818152602001828054611c2690612f19565b8015611c735780601f10611c4857610100808354040283529160200191611c73565b820191906000526020600020905b815481529060010190602001808311611c5657829003601f168201915b505050505090806003018054611c8890612f19565b80601f0160208091040260200160405190810160405280929190818152602001828054611cb490612f19565b8015611d015780601f10611cd657610100808354040283529160200191611d01565b820191906000526020600020905b815481529060010190602001808311611ce457829003601f168201915b505050505090806004018054611d1690612f19565b80601f0160208091040260200160405190810160405280929190818152602001828054611d4290612f19565b8015611d8f5780601f10611d6457610100808354040283529160200191611d8f565b820191906000526020600020905b815481529060010190602001808311611d7257829003601f168201915b5050505050905085565b600560205260009081526040902080546001820180546001600160a01b0390921692916114b590612f19565b6001600160a01b0381166000908152600460209081526040808320600101805482518185028101850190935280835260609492939192909184015b828210156121225760008481526020908190206040805160c081019091526006850290910180546001600160a01b031682526001810180549293919291840191611e4990612f19565b80601f0160208091040260200160405190810160405280929190818152602001828054611e7590612f19565b8015611ec25780601f10611e9757610100808354040283529160200191611ec2565b820191906000526020600020905b815481529060010190602001808311611ea557829003601f168201915b50505050508152602001600282018054611edb90612f19565b80601f0160208091040260200160405190810160405280929190818152602001828054611f0790612f19565b8015611f545780601f10611f2957610100808354040283529160200191611f54565b820191906000526020600020905b815481529060010190602001808311611f3757829003601f168201915b50505050508152602001600382018054611f6d90612f19565b80601f0160208091040260200160405190810160405280929190818152602001828054611f9990612f19565b8015611fe65780601f10611fbb57610100808354040283529160200191611fe6565b820191906000526020600020905b815481529060010190602001808311611fc957829003601f168201915b50505050508152602001600482018054611fff90612f19565b80601f016020809104026020016040519081016040528092919081815260200182805461202b90612f19565b80156120785780601f1061204d57610100808354040283529160200191612078565b820191906000526020600020905b81548152906001019060200180831161205b57829003601f168201915b5050505050815260200160058201805461209190612f19565b80601f01602080910402602001604051908101604052809291908181526020018280546120bd90612f19565b801561210a5780601f106120df5761010080835404028352916020019161210a565b820191906000526020600020905b8154815290600101906020018083116120ed57829003601f168201915b50505050508152505081526020019060010190611e00565b505050509050919050565b60015460609060009067ffffffffffffffff81111561214e5761214e6124cc565b6040519080825280602002602001820160405280156121b357816020015b6121a06040518060a00160405280606081526020016060815260200160008152602001606081526020016000151581525090565b81526020019060019003908161216c5790505b5090506000805b600154811015612447578480519060200120600182815481106121df576121df6130ac565b90600052602060002090600502016000016040516121fd9190613218565b604051809103902003612435576001818154811061221d5761221d6130ac565b90600052602060002090600502016040518060a001604052908160008201805461224690612f19565b80601f016020809104026020016040519081016040528092919081815260200182805461227290612f19565b80156122bf5780601f10612294576101008083540402835291602001916122bf565b820191906000526020600020905b8154815290600101906020018083116122a257829003601f168201915b505050505081526020016001820180546122d890612f19565b80601f016020809104026020016040519081016040528092919081815260200182805461230490612f19565b80156123515780601f1061232657610100808354040283529160200191612351565b820191906000526020600020905b81548152906001019060200180831161233457829003601f168201915b505050505081526020016002820154815260200160038201805461237490612f19565b80601f01602080910402602001604051908101604052809291908181526020018280546123a090612f19565b80156123ed5780601f106123c2576101008083540402835291602001916123ed565b820191906000526020600020905b8154815290600101906020018083116123d057829003601f168201915b50505091835250506004919091015460ff161515602090910152835184908490811061241b5761241b6130ac565b60200260200101819052508180612431906130d8565b9250505b8061243f816130d8565b9150506121ba565b50600154811015611b2657815292915050565b6000806124668461212d565b9050805183106124885760405162461bcd60e51b8152600401610f2a9061313c565b600081848151811061249c5761249c6130ac565b6020026020010151604001519050600081670de0b6b3a76400006124c0919061314c565b93505050505b92915050565b634e487b7160e01b600052604160045260246000fd5b601f19601f830116810181811067ffffffffffffffff82111715612508576125086124cc565b6040525050565b600061251a60405190565b905061252682826124e2565b919050565b600067ffffffffffffffff821115612545576125456124cc565b601f19601f83011660200192915050565b82818337506000910152565b60006125756125708461252b565b61250f565b90508281526020810184848401111561259057612590600080fd5b61259b848285612556565b509392505050565b600082601f8301126125b7576125b7600080fd5b81356125c7848260208601612562565b949350505050565b60008060008060008060c087890312156125eb576125eb600080fd5b863567ffffffffffffffff81111561260557612605600080fd5b61261189828a016125a3565b965050602087013567ffffffffffffffff81111561263157612631600080fd5b61263d89828a016125a3565b955050604087013567ffffffffffffffff81111561265d5761265d600080fd5b61266989828a016125a3565b945050606087013567ffffffffffffffff81111561268957612689600080fd5b61269589828a016125a3565b935050608087013567ffffffffffffffff8111156126b5576126b5600080fd5b6126c189828a016125a3565b92505060a087013567ffffffffffffffff8111156126e1576126e1600080fd5b6126ed89828a016125a3565b9150509295509295509295565b60006001600160a01b0382166124c6565b612714816126fa565b82525050565b60005b8381101561273557818101518382015260200161271d565b50506000910152565b6000612748825190565b80845260208401935061275f81856020860161271a565b601f01601f19169290920192915050565b805160009060a0840190612784858261270b565b506020830151848203602086015261279c828261273e565b915050604083015184820360408601526127b6828261273e565b915050606083015184820360608601526127d0828261273e565b915050608083015184820360808601526127ea828261273e565b95945050505050565b60006127ff8383612770565b9392505050565b6000612810825190565b8084526020840193508360208202850161282a8560200190565b8060005b8581101561285f578484038952815161284785826127f3565b94506020830160209a909a019992505060010161282e565b5091979650505050505050565b602080825281016127ff8184612806565b6000806000806080858703121561289657612896600080fd5b843567ffffffffffffffff8111156128b0576128b0600080fd5b6128bc878288016125a3565b945050602085013567ffffffffffffffff8111156128dc576128dc600080fd5b6128e8878288016125a3565b935050604085013567ffffffffffffffff81111561290857612908600080fd5b612914878288016125a3565b925050606085013567ffffffffffffffff81111561293457612934600080fd5b612940878288016125a3565b91505092959194509250565b612955816126fa565b811461296057600080fd5b50565b80356124c68161294c565b60006020828403121561298357612983600080fd5b60006125c78484612963565b805160009060e08401906129a3858261270b565b50602083015184820360208601526129bb828261273e565b915050604083015184820360408601526129d5828261273e565b915050606083015184820360608601526129ef828261273e565b91505060808301518482036080860152612a09828261273e565b91505060a083015184820360a0860152612a23828261273e565b91505060c083015184820360c08601526127ea828261273e565b602080825281016127ff818461298f565b80612955565b80356124c681612a4e565b60008060408385031215612a7557612a75600080fd5b823567ffffffffffffffff811115612a8f57612a8f600080fd5b612a9b858286016125a3565b9250506020612aac85828601612a54565b9150509250929050565b60008060008060808587031215612acf57612acf600080fd5b843567ffffffffffffffff811115612ae957612ae9600080fd5b612af5878288016125a3565b945050602085013567ffffffffffffffff811115612b1557612b15600080fd5b612b21878288016125a3565b935050604061291487828801612a54565b600060208284031215612b4757612b47600080fd5b60006125c78484612a54565b60e08101612b61828a61270b565b8181036020830152612b73818961273e565b90508181036040830152612b87818861273e565b90508181036060830152612b9b818761273e565b90508181036080830152612baf818661273e565b905081810360a0830152612bc3818561273e565b905081810360c0830152612bd7818461273e565b9998505050505050505050565b80612714565b801515612714565b60a08082528101612c03818861273e565b90508181036020830152612c17818761273e565b9050612c266040830186612be4565b8181036060830152612c38818561273e565b9050612c476080830184612bea565b9695505050505050565b602081016124c6828461270b565b600060208284031215612c7457612c74600080fd5b813567ffffffffffffffff811115612c8e57612c8e600080fd5b6125c7848285016125a3565b60a08101612ca8828861270b565b8181036020830152612cba818761273e565b90508181036040830152612cce818661273e565b90508181036060830152612ce2818561273e565b90508181036080830152612cf6818461273e565b979650505050505050565b805160009060c0840190612d15858261270b565b5060208301518482036020860152612d2d828261273e565b91505060408301518482036040860152612d47828261273e565b91505060608301518482036060860152612d61828261273e565b91505060808301518482036080860152612d7b828261273e565b91505060a083015184820360a08601526127ea828261273e565b60006127ff8383612d01565b6000612dab825190565b80845260208401935083602082028501612dc58560200190565b8060005b8581101561285f5784840389528151612de28582612d95565b94506020830160209a909a0199925050600101612dc9565b602080825281016127ff8184612da1565b805160a080845260009190840190612e23828261273e565b91505060208301518482036020860152612e3d828261273e565b9150506040830151612e526040860182612be4565b5060608301518482036060860152612e6a828261273e565b915050608083015161259b6080860182612bea565b60006127ff8383612e0b565b6000612e95825190565b80845260208401935083602082028501612eaf8560200190565b8060005b8581101561285f5784840389528151612ecc8582612e7f565b94506020830160209a909a0199925050600101612eb3565b602080825281016127ff8184612e8b565b602081016124c68284612be4565b634e487b7160e01b600052602260045260246000fd5b600281046001821680612f2d57607f821691505b602082108103610ef757610ef7612f03565b60006124c6612f4b8381565b90565b612f5783612f3f565b81546008840282811b60001990911b908116901990911617825550505050565b6000612f84818484612f4e565b505050565b81811015612fa457612f9c600082612f77565b600101612f89565b5050565b601f821115612f84576000818152602090206020601f85010481016020851015612fcf5750805b612fe16020601f860104830182612f89565b5050505050565b815167ffffffffffffffff811115613002576130026124cc565b61300c8254612f19565b613017828285612fa8565b6020601f83116001811461304b57600084156130335750858201515b600019600886021c19811660028602178655506130a4565b600085815260208120601f198616915b8281101561307b578885015182556020948501946001909201910161305b565b868310156130975784890151600019601f89166008021c191682555b6001600288020188555050505b505050505050565b634e487b7160e01b600052603260045260246000fd5b634e487b7160e01b600052601160045260246000fd5b600060001982036130eb576130eb6130c2565b5060010190565b818103818111156124c6576124c66130c2565b601281526000602082017f496e76616c69642066696c6520696e6465780000000000000000000000000000815291505b5060200190565b602080825281016124c681613105565b818102808215838204851417611b2657611b266130c2565b60208082527f496e73756666696369656e742066756e647320746f2062757920612066696c6591019081526000613135565b602080825281016124c681613164565b600081546131b381612f19565b6001821680156131ca57600181146131df5761320f565b60ff198316865281151582028601935061320f565b60008581526020902060005b83811015613207578154888201526001909101906020016131eb565b838801955050505b50505092915050565b60006127ff82846131a656fea26469706673582212207910af4c6d785ec0a1c84f3dd429088d169e95cf25e8d44104c3bb4d33f8e7f364736f6c63430008110033",
  "linkReferences": {},
  "deployedLinkReferences": {}
}