{
  "_format": "hh-sol-artifact-1",
  "contractName": "UIHub",
  "sourceName": "contracts/My Comtracts/UIHub.sol",
  "abi": [
    {
      "inputs": [
        {
          "internalType": "uint256",
          "name": "",
          "type": "uint256"
        }
      ],
      "name": "allDesigners",
      "outputs": [
        {
          "internalType": "address",
          "name": "designer",
          "type": "address"
        },
        {
          "internalType": "string",
          "name": "rewards",
          "type": "string"
        }
      ],
      "stateMutability": "view",
      "type": "function"
    },
    {
      "inputs": [
        {
          "internalType": "uint256",
          "name": "",
          "type": "uint256"
        }
      ],
      "name": "allDesigns",
      "outputs": [
        {
          "internalType": "address",
          "name": "creator",
          "type": "address"
        },
        {
          "internalType": "string",
          "name": "thumbnail",
          "type": "string"
        },
        {
          "internalType": "string",
          "name": "name",
          "type": "string"
        },
        {
          "internalType": "string",
          "name": "description",
          "type": "string"
        },
        {
          "internalType": "uint256",
          "name": "sellValue",
          "type": "uint256"
        },
        {
          "internalType": "string",
          "name": "viewAccess_url",
          "type": "string"
        },
        {
          "internalType": "string",
          "name": "editAccess_url",
          "type": "string"
        }
      ],
      "stateMutability": "view",
      "type": "function"
    },
    {
      "inputs": [
        {
          "internalType": "uint256",
          "name": "_index",
          "type": "uint256"
        }
      ],
      "name": "buyDesign",
      "outputs": [],
      "stateMutability": "payable",
      "type": "function"
    },
    {
      "inputs": [],
      "name": "getAllDesigns",
      "outputs": [
        {
          "components": [
            {
              "internalType": "address",
              "name": "creator",
              "type": "address"
            },
            {
              "internalType": "string",
              "name": "thumbnail",
              "type": "string"
            },
            {
              "internalType": "string",
              "name": "name",
              "type": "string"
            },
            {
              "internalType": "string",
              "name": "description",
              "type": "string"
            },
            {
              "internalType": "uint256",
              "name": "sellValue",
              "type": "uint256"
            },
            {
              "internalType": "string",
              "name": "viewAccess_url",
              "type": "string"
            },
            {
              "internalType": "string",
              "name": "editAccess_url",
              "type": "string"
            }
          ],
          "internalType": "struct UIHub.Post[]",
          "name": "",
          "type": "tuple[]"
        }
      ],
      "stateMutability": "view",
      "type": "function"
    },
    {
      "inputs": [
        {
          "internalType": "address",
          "name": "_designer",
          "type": "address"
        }
      ],
      "name": "getDesignerRewards",
      "outputs": [
        {
          "internalType": "string",
          "name": "",
          "type": "string"
        }
      ],
      "stateMutability": "view",
      "type": "function"
    },
    {
      "inputs": [
        {
          "internalType": "address",
          "name": "_add",
          "type": "address"
        }
      ],
      "name": "getMyNfts",
      "outputs": [
        {
          "components": [
            {
              "internalType": "address",
              "name": "creator",
              "type": "address"
            },
            {
              "internalType": "string",
              "name": "thumbnail",
              "type": "string"
            },
            {
              "internalType": "string",
              "name": "name",
              "type": "string"
            },
            {
              "internalType": "string",
              "name": "description",
              "type": "string"
            },
            {
              "internalType": "uint256",
              "name": "sellValue",
              "type": "uint256"
            },
            {
              "internalType": "string",
              "name": "viewAccess_url",
              "type": "string"
            },
            {
              "internalType": "string",
              "name": "editAccess_url",
              "type": "string"
            }
          ],
          "internalType": "struct UIHub.Post[]",
          "name": "",
          "type": "tuple[]"
        }
      ],
      "stateMutability": "view",
      "type": "function"
    },
    {
      "inputs": [
        {
          "internalType": "string",
          "name": "_thumbnail",
          "type": "string"
        },
        {
          "internalType": "string",
          "name": "_name",
          "type": "string"
        },
        {
          "internalType": "string",
          "name": "_description",
          "type": "string"
        },
        {
          "internalType": "uint256",
          "name": "_sellValue",
          "type": "uint256"
        },
        {
          "internalType": "string",
          "name": "_viewAccess_url",
          "type": "string"
        },
        {
          "internalType": "string",
          "name": "_editAccess_url",
          "type": "string"
        }
      ],
      "name": "postDesign",
      "outputs": [],
      "stateMutability": "nonpayable",
      "type": "function"
    },
    {
      "inputs": [
        {
          "internalType": "uint256",
          "name": "_index",
          "type": "uint256"
        },
        {
          "internalType": "string",
          "name": "_rewardNFT",
          "type": "string"
        }
      ],
      "name": "rewardDesigner",
      "outputs": [],
      "stateMutability": "payable",
      "type": "function"
    },
    {
      "inputs": [
        {
          "internalType": "address",
          "name": "",
          "type": "address"
        }
      ],
      "name": "users",
      "outputs": [
        {
          "internalType": "address",
          "name": "nftOwner",
          "type": "address"
        }
      ],
      "stateMutability": "view",
      "type": "function"
    }
  ],
  "bytecode": "0x608060405234801561001057600080fd5b50612096806100206000396000f3fe6080604052600436106100965760003560e01c8063aacfc92e11610069578063bdd624631161004e578063bdd6246314610192578063d41a74be146101bf578063f6c1b77a146101df57600080fd5b8063aacfc92e14610131578063b43cf7ee1461015f57600080fd5b80633840cf701461009b5780635da1c1de146100c65780639cdc4919146100db578063a87430ba146100ee575b600080fd5b3480156100a757600080fd5b506100b06101ff565b6040516100bd9190611879565b60405180910390f35b6100d96100d43660046118a5565b610558565b005b6100d96100e93660046119c9565b610a59565b3480156100fa57600080fd5b50610124610109366004611a35565b6002602052600090815260409020546001600160a01b031681565b6040516100bd9190611a56565b34801561013d57600080fd5b5061015161014c3660046118a5565b610ad6565b6040516100bd929190611a64565b34801561016b57600080fd5b5061017f61017a3660046118a5565b610b98565b6040516100bd9796959493929190611a84565b34801561019e57600080fd5b506101b26101ad366004611a35565b610e98565b6040516100bd9190611b0e565b3480156101cb57600080fd5b506100d96101da366004611b1f565b610f5c565b3480156101eb57600080fd5b506100b06101fa366004611a35565b6112e5565b60606000805480602002602001604051908101604052809291908181526020016000905b8282101561054f5760008481526020908190206040805160e081019091526007850290910180546001600160a01b03168252600181018054929391929184019161026c90611c45565b80601f016020809104026020016040519081016040528092919081815260200182805461029890611c45565b80156102e55780601f106102ba576101008083540402835291602001916102e5565b820191906000526020600020905b8154815290600101906020018083116102c857829003601f168201915b505050505081526020016002820180546102fe90611c45565b80601f016020809104026020016040519081016040528092919081815260200182805461032a90611c45565b80156103775780601f1061034c57610100808354040283529160200191610377565b820191906000526020600020905b81548152906001019060200180831161035a57829003601f168201915b5050505050815260200160038201805461039090611c45565b80601f01602080910402602001604051908101604052809291908181526020018280546103bc90611c45565b80156104095780601f106103de57610100808354040283529160200191610409565b820191906000526020600020905b8154815290600101906020018083116103ec57829003601f168201915b505050505081526020016004820154815260200160058201805461042c90611c45565b80601f016020809104026020016040519081016040528092919081815260200182805461045890611c45565b80156104a55780601f1061047a576101008083540402835291602001916104a5565b820191906000526020600020905b81548152906001019060200180831161048857829003601f168201915b505050505081526020016006820180546104be90611c45565b80601f01602080910402602001604051908101604052809291908181526020018280546104ea90611c45565b80156105375780601f1061050c57610100808354040283529160200191610537565b820191906000526020600020905b81548152906001019060200180831161051a57829003601f168201915b50505050508152505081526020019060010190610223565b50505050905090565b60005481106105825760405162461bcd60e51b815260040161057990611ca8565b60405180910390fd5b600080828154811061059657610596611cb8565b60009182526020918290206040805160e0810190915260079092020180546001600160a01b0316825260018101805492939192918401916105d690611c45565b80601f016020809104026020016040519081016040528092919081815260200182805461060290611c45565b801561064f5780601f106106245761010080835404028352916020019161064f565b820191906000526020600020905b81548152906001019060200180831161063257829003601f168201915b5050505050815260200160028201805461066890611c45565b80601f016020809104026020016040519081016040528092919081815260200182805461069490611c45565b80156106e15780601f106106b6576101008083540402835291602001916106e1565b820191906000526020600020905b8154815290600101906020018083116106c457829003601f168201915b505050505081526020016003820180546106fa90611c45565b80601f016020809104026020016040519081016040528092919081815260200182805461072690611c45565b80156107735780601f1061074857610100808354040283529160200191610773565b820191906000526020600020905b81548152906001019060200180831161075657829003601f168201915b505050505081526020016004820154815260200160058201805461079690611c45565b80601f01602080910402602001604051908101604052809291908181526020018280546107c290611c45565b801561080f5780601f106107e45761010080835404028352916020019161080f565b820191906000526020600020905b8154815290600101906020018083116107f257829003601f168201915b5050505050815260200160068201805461082890611c45565b80601f016020809104026020016040519081016040528092919081815260200182805461085490611c45565b80156108a15780601f10610876576101008083540402835291602001916108a1565b820191906000526020600020905b81548152906001019060200180831161088457829003601f168201915b505050505081525050905080608001513410156108d05760405162461bcd60e51b815260040161057990611d02565b80516040516000916001600160a01b0316903480156108fc029184818181858888f193505050509050806109165760405162461bcd60e51b815260040161057990611d46565b33600081815260026020526040812080546001600160a01b031916909217825580546001830191908690811061094e5761094e611cb8565b6000918252602080832084546001818101875595855291909320600792830290930180549190920290920180546001600160a01b0319166001600160a01b0390931692909217825591818101906109a790840182611e03565b506002818101906109ba90840182611e03565b506003818101906109cd90840182611e03565b5060048201548160040155600582018160050190816109ec9190611e03565b506006818101906109ff90840182611e03565b5050506000610a118460000151611657565b9050610a52816040518060400160405280600381526020017f6e66740000000000000000000000000000000000000000000000000000000000815250610a59565b5050505050565b6001548210610a7a5760405162461bcd60e51b815260040161057990611f1b565b600060018381548110610a8f57610a8f611cb8565b906000526020600020906003020190508160018481548110610ab357610ab3611cb8565b90600052602060002090600302016002019081610ad09190611f2b565b50505050565b60018181548110610ae657600080fd5b6000918252602090912060039091020180546002820180546001600160a01b03909216935090610b1590611c45565b80601f0160208091040260200160405190810160405280929190818152602001828054610b4190611c45565b8015610b8e5780601f10610b6357610100808354040283529160200191610b8e565b820191906000526020600020905b815481529060010190602001808311610b7157829003601f168201915b5050505050905082565b60008181548110610ba857600080fd5b6000918252602090912060079091020180546001820180546001600160a01b03909216935090610bd790611c45565b80601f0160208091040260200160405190810160405280929190818152602001828054610c0390611c45565b8015610c505780601f10610c2557610100808354040283529160200191610c50565b820191906000526020600020905b815481529060010190602001808311610c3357829003601f168201915b505050505090806002018054610c6590611c45565b80601f0160208091040260200160405190810160405280929190818152602001828054610c9190611c45565b8015610cde5780601f10610cb357610100808354040283529160200191610cde565b820191906000526020600020905b815481529060010190602001808311610cc157829003601f168201915b505050505090806003018054610cf390611c45565b80601f0160208091040260200160405190810160405280929190818152602001828054610d1f90611c45565b8015610d6c5780601f10610d4157610100808354040283529160200191610d6c565b820191906000526020600020905b815481529060010190602001808311610d4f57829003601f168201915b505050505090806004015490806005018054610d8790611c45565b80601f0160208091040260200160405190810160405280929190818152602001828054610db390611c45565b8015610e005780601f10610dd557610100808354040283529160200191610e00565b820191906000526020600020905b815481529060010190602001808311610de357829003601f168201915b505050505090806006018054610e1590611c45565b80601f0160208091040260200160405190810160405280929190818152602001828054610e4190611c45565b8015610e8e5780601f10610e6357610100808354040283529160200191610e8e565b820191906000526020600020905b815481529060010190602001808311610e7157829003601f168201915b5050505050905087565b60606000610ea583611657565b905060018181548110610eba57610eba611cb8565b90600052602060002090600302016002018054610ed690611c45565b80601f0160208091040260200160405190810160405280929190818152602001828054610f0290611c45565b8015610f4f5780601f10610f2457610100808354040283529160200191610f4f565b820191906000526020600020905b815481529060010190602001808311610f3257829003601f168201915b5050505050915050919050565b6040805160e08101825233815260208101888152918101879052606081018690526080810185905260a0810184905260c081018390526000805460018101825590805281517f290decd9548b62a8d60345a988386fc84ba6bc95484008f6362f93160ef3e563600790920291820180546001600160a01b0319166001600160a01b0390921691909117815592519192839290917f290decd9548b62a8d60345a988386fc84ba6bc95484008f6362f93160ef3e564019061101c9082611f2b565b50604082015160028201906110319082611f2b565b50606082015160038201906110469082611f2b565b506080820151600482015560a082015160058201906110659082611f2b565b5060c0820151600682019061107a9082611f2b565b5060009150819050805b6001548110156111b857336001600160a01b0316600182815481106110ab576110ab611cb8565b60009182526020909120600390910201546001600160a01b0316036111a657600181815481106110dd576110dd611cb8565b60009182526020808320600160039093020182018054808401825590845292819020875160079094020180546001600160a01b039094166001600160a01b03199094169390931783558601518692918201906111399082611f2b565b506040820151600282019061114e9082611f2b565b50606082015160038201906111639082611f2b565b506080820151600482015560a082015160058201906111829082611f2b565b5060c082015160068201906111979082611f2b565b505050600192508091506111b8565b806111b081611fef565b915050611084565b50816112da576001805480820182556003027fb10e2d527612073b26eecdfd717e6a320cf44b4afac2b0732d9fcbe2b7fa0cf6810180546001600160a01b0319908116331782557fb10e2d527612073b26eecdfd717e6a320cf44b4afac2b0732d9fcbe2b7fa0cf7909201805480850182556000918252602091829020885160079092020180546001600160a01b0392909216919094161783558601519092869291908201906112689082611f2b565b506040820151600282019061127d9082611f2b565b50606082015160038201906112929082611f2b565b506080820151600482015560a082015160058201906112b19082611f2b565b5060c082015160068201906112c69082611f2b565b5050600180546112d69250612009565b9150505b505050505050505050565b6001600160a01b0381166000908152600260209081526040808320600101805482518185028101850190935280835260609492939192909184015b8282101561164c5760008481526020908190206040805160e081019091526007850290910180546001600160a01b03168252600181018054929391929184019161136990611c45565b80601f016020809104026020016040519081016040528092919081815260200182805461139590611c45565b80156113e25780601f106113b7576101008083540402835291602001916113e2565b820191906000526020600020905b8154815290600101906020018083116113c557829003601f168201915b505050505081526020016002820180546113fb90611c45565b80601f016020809104026020016040519081016040528092919081815260200182805461142790611c45565b80156114745780601f1061144957610100808354040283529160200191611474565b820191906000526020600020905b81548152906001019060200180831161145757829003601f168201915b5050505050815260200160038201805461148d90611c45565b80601f01602080910402602001604051908101604052809291908181526020018280546114b990611c45565b80156115065780601f106114db57610100808354040283529160200191611506565b820191906000526020600020905b8154815290600101906020018083116114e957829003601f168201915b505050505081526020016004820154815260200160058201805461152990611c45565b80601f016020809104026020016040519081016040528092919081815260200182805461155590611c45565b80156115a25780601f10611577576101008083540402835291602001916115a2565b820191906000526020600020905b81548152906001019060200180831161158557829003601f168201915b505050505081526020016006820180546115bb90611c45565b80601f01602080910402602001604051908101604052809291908181526020018280546115e790611c45565b80156116345780601f1061160957610100808354040283529160200191611634565b820191906000526020600020905b81548152906001019060200180831161161757829003601f168201915b50505050508152505081526020019060010190611320565b505050509050919050565b6000805b6001548110156116b957826001600160a01b03166001828154811061168257611682611cb8565b60009182526020909120600390910201546001600160a01b0316036116a75792915050565b806116b181611fef565b91505061165b565b5060405162461bcd60e51b815260040161057990612050565b60006001600160a01b0382165b92915050565b6116ee816116d2565b82525050565b60005b8381101561170f5781810151838201526020016116f7565b50506000910152565b6000611722825190565b8084526020840193506117398185602086016116f4565b601f01601f19169290920192915050565b806116ee565b805160009060e084019061176485826116e5565b506020830151848203602086015261177c8282611718565b915050604083015184820360408601526117968282611718565b915050606083015184820360608601526117b08282611718565b91505060808301516117c5608086018261174a565b5060a083015184820360a08601526117dd8282611718565b91505060c083015184820360c08601526117f78282611718565b95945050505050565b600061180c8383611750565b9392505050565b600061181d825190565b808452602084019350836020820285016118378560200190565b8060005b8581101561186c57848403895281516118548582611800565b94506020830160209a909a019992505060010161183b565b5091979650505050505050565b6020808252810161180c8184611813565b805b811461189757600080fd5b50565b80356116df8161188a565b6000602082840312156118ba576118ba600080fd5b60006118c6848461189a565b949350505050565b634e487b7160e01b600052604160045260246000fd5b601f19601f830116810181811067ffffffffffffffff8211171561190a5761190a6118ce565b6040525050565b600061191c60405190565b905061192882826118e4565b919050565b600067ffffffffffffffff821115611947576119476118ce565b601f19601f83011660200192915050565b82818337506000910152565b60006119776119728461192d565b611911565b90508281526020810184848401111561199257611992600080fd5b61199d848285611958565b509392505050565b600082601f8301126119b9576119b9600080fd5b81356118c6848260208601611964565b600080604083850312156119df576119df600080fd5b60006119eb858561189a565b925050602083013567ffffffffffffffff811115611a0b57611a0b600080fd5b611a17858286016119a5565b9150509250929050565b61188c816116d2565b80356116df81611a21565b600060208284031215611a4a57611a4a600080fd5b60006118c68484611a2a565b602081016116df82846116e5565b60408101611a7282856116e5565b81810360208301526118c68184611718565b60e08101611a92828a6116e5565b8181036020830152611aa48189611718565b90508181036040830152611ab88188611718565b90508181036060830152611acc8187611718565b9050611adb608083018661174a565b81810360a0830152611aed8185611718565b905081810360c0830152611b018184611718565b9998505050505050505050565b6020808252810161180c8184611718565b60008060008060008060c08789031215611b3b57611b3b600080fd5b863567ffffffffffffffff811115611b5557611b55600080fd5b611b6189828a016119a5565b965050602087013567ffffffffffffffff811115611b8157611b81600080fd5b611b8d89828a016119a5565b955050604087013567ffffffffffffffff811115611bad57611bad600080fd5b611bb989828a016119a5565b9450506060611bca89828a0161189a565b935050608087013567ffffffffffffffff811115611bea57611bea600080fd5b611bf689828a016119a5565b92505060a087013567ffffffffffffffff811115611c1657611c16600080fd5b611c2289828a016119a5565b9150509295509295509295565b634e487b7160e01b600052602260045260246000fd5b600281046001821680611c5957607f821691505b602082108103611c6b57611c6b611c2f565b50919050565b601481526000602082017f496e76616c69642064657369676e20696e646578000000000000000000000000815291505b5060200190565b602080825281016116df81611c71565b634e487b7160e01b600052603260045260246000fd5b601281526000602082017f496e73756666696369656e742066756e6473000000000000000000000000000081529150611ca1565b602080825281016116df81611cce565b600f81526000602082017f5472616e73666572206661696c6564000000000000000000000000000000000081529150611ca1565b602080825281016116df81611d12565b80546116df81611c45565b60006116df611d6d8381565b90565b611d7983611d61565b81546008840282811b60001990911b908116901990911617825550505050565b6000611da6818484611d70565b505050565b81811015611dc657611dbe600082611d99565b600101611dab565b5050565b601f821115611da6576000818152602090206020601f85010481016020851015611df15750805b610a526020601f860104830182611dab565b818103611e0e575050565b611e1782611d56565b67ffffffffffffffff811115611e2f57611e2f6118ce565b611e398254611c45565b611e44828285611dca565b6000601f831160018114611e795760008415611e605750858201545b600019600886021c19811660028602175b865550611edf565b600095865260208087208688529087209096601f19861691905b82811015611eb35788850154825560019485019490910190602001611e93565b86831015611ed257888501546000196008601f8a16021c1981165b8355505b6001600288020188555050505b505050505050565b601681526000602082017f496e76616c69642064657369676e657220696e6465780000000000000000000081529150611ca1565b602080825281016116df81611ee7565b815167ffffffffffffffff811115611f4557611f456118ce565b611f4f8254611c45565b611f5a828285611dca565b6020601f831160018114611f8a5760008415611e60575081860151600019600886021c1981166002860217611e71565b600085815260208120601f198616915b82811015611fba5788850151825560209485019460019092019101611f9a565b86831015611ed257888501516000196008601f8a16021c198116611ece565b634e487b7160e01b600052601160045260246000fd5b6000600019820361200257612002611fd9565b5060010190565b818103818111156116df576116df611fd9565b601281526000602082017f44657369676e6572206e6f7420666f756e64000000000000000000000000000081529150611ca1565b602080825281016116df8161201c56fea26469706673582212200c7241810da4cf78fa454eb729d229edc993ae715c02f8e94b3c7873db32455664736f6c63430008110033",
  "linkReferences": {},
  "deployedLinkReferences": {}
}