{
  "_format": "hh-sol-artifact-1",
  "contractName": "UIHubNew",
  "sourceName": "contracts/My Comtracts/UIHubNew.sol",
  "abi": [
    {
      "inputs": [
        {
          "internalType": "string",
          "name": "_thumbnail",
          "type": "string"
        },
        {
          "internalType": "string",
          "name": "_fileName",
          "type": "string"
        },
        {
          "internalType": "uint256",
          "name": "_fileValue",
          "type": "uint256"
        },
        {
          "internalType": "string",
          "name": "_file",
          "type": "string"
        }
      ],
      "name": "addFiles",
      "outputs": [],
      "stateMutability": "nonpayable",
      "type": "function"
    },
    {
      "inputs": [
        {
          "internalType": "uint256",
          "name": "",
          "type": "uint256"
        }
      ],
      "name": "allDesigners",
      "outputs": [
        {
          "internalType": "address",
          "name": "designer",
          "type": "address"
        }
      ],
      "stateMutability": "view",
      "type": "function"
    },
    {
      "inputs": [
        {
          "internalType": "uint256",
          "name": "",
          "type": "uint256"
        }
      ],
      "name": "allDesigns",
      "outputs": [
        {
          "internalType": "address",
          "name": "creator",
          "type": "address"
        },
        {
          "internalType": "string",
          "name": "PostType",
          "type": "string"
        },
        {
          "internalType": "string",
          "name": "thumbnail",
          "type": "string"
        },
        {
          "internalType": "string",
          "name": "name",
          "type": "string"
        },
        {
          "internalType": "string",
          "name": "description",
          "type": "string"
        }
      ],
      "stateMutability": "view",
      "type": "function"
    },
    {
      "inputs": [
        {
          "internalType": "uint256",
          "name": "",
          "type": "uint256"
        }
      ],
      "name": "allFiles",
      "outputs": [
        {
          "internalType": "string",
          "name": "fileThumbnail",
          "type": "string"
        },
        {
          "internalType": "string",
          "name": "fileName",
          "type": "string"
        },
        {
          "internalType": "uint256",
          "name": "fileValue",
          "type": "uint256"
        },
        {
          "internalType": "string",
          "name": "file",
          "type": "string"
        },
        {
          "internalType": "bool",
          "name": "sold",
          "type": "bool"
        }
      ],
      "stateMutability": "view",
      "type": "function"
    },
    {
      "inputs": [
        {
          "internalType": "string",
          "name": "_thumbnailOfFile",
          "type": "string"
        },
        {
          "internalType": "uint256",
          "name": "_indexOfFile",
          "type": "uint256"
        }
      ],
      "name": "buyDesign",
      "outputs": [],
      "stateMutability": "payable",
      "type": "function"
    },
    {
      "inputs": [
        {
          "internalType": "string",
          "name": "_thumbnail",
          "type": "string"
        }
      ],
      "name": "getAddedFiles",
      "outputs": [
        {
          "components": [
            {
              "internalType": "string",
              "name": "fileThumbnail",
              "type": "string"
            },
            {
              "internalType": "string",
              "name": "fileName",
              "type": "string"
            },
            {
              "internalType": "uint256",
              "name": "fileValue",
              "type": "uint256"
            },
            {
              "internalType": "string",
              "name": "file",
              "type": "string"
            },
            {
              "internalType": "bool",
              "name": "sold",
              "type": "bool"
            }
          ],
          "internalType": "struct UIHubNew.AddedFile[]",
          "name": "",
          "type": "tuple[]"
        }
      ],
      "stateMutability": "view",
      "type": "function"
    },
    {
      "inputs": [],
      "name": "getAllDesigns",
      "outputs": [
        {
          "components": [
            {
              "internalType": "address",
              "name": "creator",
              "type": "address"
            },
            {
              "internalType": "string",
              "name": "PostType",
              "type": "string"
            },
            {
              "internalType": "string",
              "name": "thumbnail",
              "type": "string"
            },
            {
              "internalType": "string",
              "name": "name",
              "type": "string"
            },
            {
              "internalType": "string",
              "name": "description",
              "type": "string"
            }
          ],
          "internalType": "struct UIHubNew.Post[]",
          "name": "",
          "type": "tuple[]"
        }
      ],
      "stateMutability": "view",
      "type": "function"
    },
    {
      "inputs": [
        {
          "internalType": "string",
          "name": "_thumbnailOfFile",
          "type": "string"
        }
      ],
      "name": "getCreator",
      "outputs": [
        {
          "internalType": "address",
          "name": "",
          "type": "address"
        }
      ],
      "stateMutability": "view",
      "type": "function"
    },
    {
      "inputs": [
        {
          "internalType": "string",
          "name": "_thumbnail",
          "type": "string"
        },
        {
          "internalType": "uint256",
          "name": "_indexOfFile",
          "type": "uint256"
        }
      ],
      "name": "getFileValue",
      "outputs": [
        {
          "internalType": "uint256",
          "name": "",
          "type": "uint256"
        }
      ],
      "stateMutability": "view",
      "type": "function"
    },
    {
      "inputs": [
        {
          "internalType": "address",
          "name": "_add",
          "type": "address"
        }
      ],
      "name": "getMyNfts",
      "outputs": [
        {
          "components": [
            {
              "internalType": "address",
              "name": "creator",
              "type": "address"
            },
            {
              "internalType": "string",
              "name": "PostType",
              "type": "string"
            },
            {
              "internalType": "string",
              "name": "thumbnail",
              "type": "string"
            },
            {
              "internalType": "string",
              "name": "name",
              "type": "string"
            },
            {
              "internalType": "string",
              "name": "fileName",
              "type": "string"
            },
            {
              "internalType": "string",
              "name": "file",
              "type": "string"
            }
          ],
          "internalType": "struct UIHubNew.NFT[]",
          "name": "",
          "type": "tuple[]"
        }
      ],
      "stateMutability": "view",
      "type": "function"
    },
    {
      "inputs": [
        {
          "internalType": "string",
          "name": "_fileType",
          "type": "string"
        },
        {
          "internalType": "string",
          "name": "_thumbnail",
          "type": "string"
        },
        {
          "internalType": "string",
          "name": "_name",
          "type": "string"
        },
        {
          "internalType": "string",
          "name": "_description",
          "type": "string"
        }
      ],
      "name": "postDesign",
      "outputs": [],
      "stateMutability": "nonpayable",
      "type": "function"
    },
    {
      "inputs": [
        {
          "internalType": "address",
          "name": "",
          "type": "address"
        }
      ],
      "name": "users",
      "outputs": [
        {
          "internalType": "address",
          "name": "nftOwner",
          "type": "address"
        }
      ],
      "stateMutability": "view",
      "type": "function"
    }
  ],
  "bytecode": "0x608060405234801561001057600080fd5b506125f8806100206000396000f3fe6080604052600436106100c75760003560e01c8063aacfc92e11610074578063f6c1b77a1161004e578063f6c1b77a14610231578063fa6455051461025e578063fc8f3f331461028b57600080fd5b8063aacfc92e146101c0578063af0b77c6146101e0578063b43cf7ee1461020057600080fd5b8063817e1cc5116100a5578063817e1cc51461012c578063a7b1f7c01461014c578063a87430ba1461017d57600080fd5b80633840cf70146100cc5780634d57537b146100f75780637eb4a1d714610119575b600080fd5b3480156100d857600080fd5b506100e16102b8565b6040516100ee9190611c55565b60405180910390f35b34801561010357600080fd5b50610117610112366004611d69565b610575565b005b610117610127366004611e53565b6108bb565b34801561013857600080fd5b50610117610147366004611eaa565b610d7f565b34801561015857600080fd5b5061016c610167366004611f26565b610e41565b6040516100ee959493929190611f55565b34801561018957600080fd5b506101b3610198366004611fc8565b6003602052600090815260409020546001600160a01b031681565b6040516100ee9190611fe9565b3480156101cc57600080fd5b506101b36101db366004611f26565b611022565b3480156101ec57600080fd5b506101b36101fb366004611ff7565b611051565b34801561020c57600080fd5b5061022061021b366004611f26565b611170565b6040516100ee959493929190612032565b34801561023d57600080fd5b5061025161024c366004611fc8565b6113dc565b6040516100ee9190612192565b34801561026a57600080fd5b5061027e610279366004611ff7565b611744565b6040516100ee919061227c565b34801561029757600080fd5b506102ab6102a6366004611e53565b611a71565b6040516100ee919061228d565b60606000805480602002602001604051908101604052809291908181526020016000905b8282101561056c5760008481526020908190206040805160a081019091526005850290910180546001600160a01b031682526001810180549293919291840191610325906122b1565b80601f0160208091040260200160405190810160405280929190818152602001828054610351906122b1565b801561039e5780601f106103735761010080835404028352916020019161039e565b820191906000526020600020905b81548152906001019060200180831161038157829003601f168201915b505050505081526020016002820180546103b7906122b1565b80601f01602080910402602001604051908101604052809291908181526020018280546103e3906122b1565b80156104305780601f1061040557610100808354040283529160200191610430565b820191906000526020600020905b81548152906001019060200180831161041357829003601f168201915b50505050508152602001600382018054610449906122b1565b80601f0160208091040260200160405190810160405280929190818152602001828054610475906122b1565b80156104c25780601f10610497576101008083540402835291602001916104c2565b820191906000526020600020905b8154815290600101906020018083116104a557829003601f168201915b505050505081526020016004820180546104db906122b1565b80601f0160208091040260200160405190810160405280929190818152602001828054610507906122b1565b80156105545780601f1061052957610100808354040283529160200191610554565b820191906000526020600020905b81548152906001019060200180831161053757829003601f168201915b505050505081525050815260200190600101906102dc565b50505050905090565b6040805160a0810182523381526020810186815291810185905260608101849052608081018390526000805460018101825590805281517f290decd9548b62a8d60345a988386fc84ba6bc95484008f6362f93160ef3e5636005909202918201805473ffffffffffffffffffffffffffffffffffffffff19166001600160a01b0390921691909117815592519192839290917f290decd9548b62a8d60345a988386fc84ba6bc95484008f6362f93160ef3e56401906106349082612386565b50604082015160028201906106499082612386565b506060820151600382019061065e9082612386565b50608082015160048201906106739082612386565b5060009150819050805b60025481101561079f57336001600160a01b0316600282815481106106a4576106a461244a565b60009182526020909120600290910201546001600160a01b03160361078d57600281815481106106d6576106d661244a565b60009182526020808320600160029093020182018054808401825590845292819020875160059094020180546001600160a01b0390941673ffffffffffffffffffffffffffffffffffffffff1990941693909317835586015186929182019061073f9082612386565b50604082015160028201906107549082612386565b50606082015160038201906107699082612386565b506080820151600482019061077e9082612386565b5050506001925080915061079f565b8061079781612476565b91505061067d565b50816108b257600280546001818101835591027f405787fa12a823e0f2b7631cc41b3ba8828b3321ca811111fa75cd3aa3bb5ace8101805473ffffffffffffffffffffffffffffffffffffffff19908116331782557f405787fa12a823e0f2b7631cc41b3ba8828b3321ca811111fa75cd3aa3bb5acf909201805480850182556000918252602091829020885160059092020180546001600160a01b03929092169190941617835586015190928692919082019061085d9082612386565b50604082015160028201906108729082612386565b50606082015160038201906108879082612386565b506080820151600482019061089c9082612386565b50506002546108ae9150600190612490565b9150505b50505050505050565b60006108c683611744565b9050805182106108f15760405162461bcd60e51b81526004016108e8906124da565b60405180910390fd5b60008183815181106109055761090561244a565b6020026020010151604001519050600060036000336001600160a01b03166001600160a01b031681526020019081526020016000209050600060608060008688815181106109555761095561244a565b602002602001015160200151905060008789815181106109775761097761244a565b602002602001015160600151905060005b600054811015610bf85760008082815481106109a6576109a661244a565b906000526020600020906005020160020180546109c2906122b1565b80601f01602080910402602001604051908101604052809291908181526020018280546109ee906122b1565b8015610a3b5780601f10610a1057610100808354040283529160200191610a3b565b820191906000526020600020905b815481529060010190602001808311610a1e57829003601f168201915b505050505090508b80519060200120818051906020012003610be55760008281548110610a6a57610a6a61244a565b6000918252602082206005909102015481546001600160a01b03909116985083908110610a9957610a9961244a565b90600052602060002090600502016003018054610ab5906122b1565b80601f0160208091040260200160405190810160405280929190818152602001828054610ae1906122b1565b8015610b2e5780601f10610b0357610100808354040283529160200191610b2e565b820191906000526020600020905b815481529060010190602001808311610b1157829003601f168201915b5050505050945060008281548110610b4857610b4861244a565b90600052602060002090600502016001018054610b64906122b1565b80601f0160208091040260200160405190810160405280929190818152602001828054610b90906122b1565b8015610bdd5780601f10610bb257610100808354040283529160200191610bdd565b820191906000526020600020905b815481529060010190602001808311610bc057829003601f168201915b505050505095505b5080610bf081612476565b915050610988565b506000610c0d88670de0b6b3a76400006124ea565b905080341015610c2f5760405162461bcd60e51b81526004016108e890612534565b6040516001600160a01b038716903480156108fc02916000818181858888f19350505050158015610c64573d6000803e3d6000fd5b506040805160c0810182526001600160a01b03888116825260208083018981529383018f9052606083018890526080830187905260a0830186905260018b81018054808301825560009182529290208451600690930201805473ffffffffffffffffffffffffffffffffffffffff19169290931691909117825592519192839290820190610cf29082612386565b5060408201516002820190610d079082612386565b5060608201516003820190610d1c9082612386565b5060808201516004820190610d319082612386565b5060a08201516005820190610d469082612386565b50505060018a8c81518110610d5d57610d5d61244a565b6020908102919091010151901515608090910152505050505050505050505050565b6040805160a08101825285815260208101859052908101839052606081018290526000608082018190526001805480820182559152815182916005027fb10e2d527612073b26eecdfd717e6a320cf44b4afac2b0732d9fcbe2b7fa0cf601908190610dea9082612386565b5060208201516001820190610dff9082612386565b506040820151600282015560608201516003820190610e1e9082612386565b50608091909101516004909101805460ff19169115159190911790555050505050565b60018181548110610e5157600080fd5b9060005260206000209060050201600091509050806000018054610e74906122b1565b80601f0160208091040260200160405190810160405280929190818152602001828054610ea0906122b1565b8015610eed5780601f10610ec257610100808354040283529160200191610eed565b820191906000526020600020905b815481529060010190602001808311610ed057829003601f168201915b505050505090806001018054610f02906122b1565b80601f0160208091040260200160405190810160405280929190818152602001828054610f2e906122b1565b8015610f7b5780601f10610f5057610100808354040283529160200191610f7b565b820191906000526020600020905b815481529060010190602001808311610f5e57829003601f168201915b505050505090806002015490806003018054610f96906122b1565b80601f0160208091040260200160405190810160405280929190818152602001828054610fc2906122b1565b801561100f5780601f10610fe45761010080835404028352916020019161100f565b820191906000526020600020905b815481529060010190602001808311610ff257829003601f168201915b5050506004909301549192505060ff1685565b6002818154811061103257600080fd5b60009182526020909120600290910201546001600160a01b0316905081565b60008060005b6000548110156111695760008082815481106110755761107561244a565b90600052602060002090600502016002018054611091906122b1565b80601f01602080910402602001604051908101604052809291908181526020018280546110bd906122b1565b801561110a5780601f106110df5761010080835404028352916020019161110a565b820191906000526020600020905b8154815290600101906020018083116110ed57829003601f168201915b50505050509050848051906020012081805190602001200361115657600082815481106111395761113961244a565b60009182526020909120600590910201546001600160a01b031692505b508061116181612476565b915050611057565b5092915050565b6000818154811061118057600080fd5b6000918252602090912060059091020180546001820180546001600160a01b039092169350906111af906122b1565b80601f01602080910402602001604051908101604052809291908181526020018280546111db906122b1565b80156112285780601f106111fd57610100808354040283529160200191611228565b820191906000526020600020905b81548152906001019060200180831161120b57829003601f168201915b50505050509080600201805461123d906122b1565b80601f0160208091040260200160405190810160405280929190818152602001828054611269906122b1565b80156112b65780601f1061128b576101008083540402835291602001916112b6565b820191906000526020600020905b81548152906001019060200180831161129957829003601f168201915b5050505050908060030180546112cb906122b1565b80601f01602080910402602001604051908101604052809291908181526020018280546112f7906122b1565b80156113445780601f1061131957610100808354040283529160200191611344565b820191906000526020600020905b81548152906001019060200180831161132757829003601f168201915b505050505090806004018054611359906122b1565b80601f0160208091040260200160405190810160405280929190818152602001828054611385906122b1565b80156113d25780601f106113a7576101008083540402835291602001916113d2565b820191906000526020600020905b8154815290600101906020018083116113b557829003601f168201915b5050505050905085565b6001600160a01b0381166000908152600360209081526040808320600101805482518185028101850190935280835260609492939192909184015b828210156117395760008481526020908190206040805160c081019091526006850290910180546001600160a01b031682526001810180549293919291840191611460906122b1565b80601f016020809104026020016040519081016040528092919081815260200182805461148c906122b1565b80156114d95780601f106114ae576101008083540402835291602001916114d9565b820191906000526020600020905b8154815290600101906020018083116114bc57829003601f168201915b505050505081526020016002820180546114f2906122b1565b80601f016020809104026020016040519081016040528092919081815260200182805461151e906122b1565b801561156b5780601f106115405761010080835404028352916020019161156b565b820191906000526020600020905b81548152906001019060200180831161154e57829003601f168201915b50505050508152602001600382018054611584906122b1565b80601f01602080910402602001604051908101604052809291908181526020018280546115b0906122b1565b80156115fd5780601f106115d2576101008083540402835291602001916115fd565b820191906000526020600020905b8154815290600101906020018083116115e057829003601f168201915b50505050508152602001600482018054611616906122b1565b80601f0160208091040260200160405190810160405280929190818152602001828054611642906122b1565b801561168f5780601f106116645761010080835404028352916020019161168f565b820191906000526020600020905b81548152906001019060200180831161167257829003601f168201915b505050505081526020016005820180546116a8906122b1565b80601f01602080910402602001604051908101604052809291908181526020018280546116d4906122b1565b80156117215780601f106116f657610100808354040283529160200191611721565b820191906000526020600020905b81548152906001019060200180831161170457829003601f168201915b50505050508152505081526020019060010190611417565b505050509050919050565b60015460609060009067ffffffffffffffff81111561176557611765611c66565b6040519080825280602002602001820160405280156117ca57816020015b6117b76040518060a00160405280606081526020016060815260200160008152602001606081526020016000151581525090565b8152602001906001900390816117835790505b5090506000805b600154811015611a5e578480519060200120600182815481106117f6576117f661244a565b906000526020600020906005020160000160405161181491906125b6565b604051809103902003611a4c57600181815481106118345761183461244a565b90600052602060002090600502016040518060a001604052908160008201805461185d906122b1565b80601f0160208091040260200160405190810160405280929190818152602001828054611889906122b1565b80156118d65780601f106118ab576101008083540402835291602001916118d6565b820191906000526020600020905b8154815290600101906020018083116118b957829003601f168201915b505050505081526020016001820180546118ef906122b1565b80601f016020809104026020016040519081016040528092919081815260200182805461191b906122b1565b80156119685780601f1061193d57610100808354040283529160200191611968565b820191906000526020600020905b81548152906001019060200180831161194b57829003601f168201915b505050505081526020016002820154815260200160038201805461198b906122b1565b80601f01602080910402602001604051908101604052809291908181526020018280546119b7906122b1565b8015611a045780601f106119d957610100808354040283529160200191611a04565b820191906000526020600020905b8154815290600101906020018083116119e757829003601f168201915b50505091835250506004919091015460ff1615156020909101528351849084908110611a3257611a3261244a565b60200260200101819052508180611a4890612476565b9250505b80611a5681612476565b9150506117d1565b5060015481101561116957815292915050565b600080611a7d84611744565b905080518310611a9f5760405162461bcd60e51b81526004016108e8906124da565b6000818481518110611ab357611ab361244a565b6020026020010151604001519050600081670de0b6b3a7640000611ad791906124ea565b93505050505b92915050565b60006001600160a01b038216611add565b611afd81611ae3565b82525050565b60005b83811015611b1e578181015183820152602001611b06565b50506000910152565b6000611b31825190565b808452602084019350611b48818560208601611b03565b601f01601f19169290920192915050565b805160009060a0840190611b6d8582611af4565b5060208301518482036020860152611b858282611b27565b91505060408301518482036040860152611b9f8282611b27565b91505060608301518482036060860152611bb98282611b27565b91505060808301518482036080860152611bd38282611b27565b95945050505050565b6000611be88383611b59565b9392505050565b6000611bf9825190565b80845260208401935083602082028501611c138560200190565b8060005b85811015611c485784840389528151611c308582611bdc565b94506020830160209a909a0199925050600101611c17565b5091979650505050505050565b60208082528101611be88184611bef565b634e487b7160e01b600052604160045260246000fd5b601f19601f830116810181811067ffffffffffffffff82111715611ca257611ca2611c66565b6040525050565b6000611cb460405190565b9050611cc08282611c7c565b919050565b600067ffffffffffffffff821115611cdf57611cdf611c66565b601f19601f83011660200192915050565b82818337506000910152565b6000611d0f611d0a84611cc5565b611ca9565b905082815260208101848484011115611d2a57611d2a600080fd5b611d35848285611cf0565b509392505050565b600082601f830112611d5157611d51600080fd5b8135611d61848260208601611cfc565b949350505050565b60008060008060808587031215611d8257611d82600080fd5b843567ffffffffffffffff811115611d9c57611d9c600080fd5b611da887828801611d3d565b945050602085013567ffffffffffffffff811115611dc857611dc8600080fd5b611dd487828801611d3d565b935050604085013567ffffffffffffffff811115611df457611df4600080fd5b611e0087828801611d3d565b925050606085013567ffffffffffffffff811115611e2057611e20600080fd5b611e2c87828801611d3d565b91505092959194509250565b805b8114611e4557600080fd5b50565b8035611add81611e38565b60008060408385031215611e6957611e69600080fd5b823567ffffffffffffffff811115611e8357611e83600080fd5b611e8f85828601611d3d565b9250506020611ea085828601611e48565b9150509250929050565b60008060008060808587031215611ec357611ec3600080fd5b843567ffffffffffffffff811115611edd57611edd600080fd5b611ee987828801611d3d565b945050602085013567ffffffffffffffff811115611f0957611f09600080fd5b611f1587828801611d3d565b9350506040611e0087828801611e48565b600060208284031215611f3b57611f3b600080fd5b6000611d618484611e48565b80611afd565b801515611afd565b60a08082528101611f668188611b27565b90508181036020830152611f7a8187611b27565b9050611f896040830186611f47565b8181036060830152611f9b8185611b27565b9050611faa6080830184611f4d565b9695505050505050565b611e3a81611ae3565b8035611add81611fb4565b600060208284031215611fdd57611fdd600080fd5b6000611d618484611fbd565b60208101611add8284611af4565b60006020828403121561200c5761200c600080fd5b813567ffffffffffffffff81111561202657612026600080fd5b611d6184828501611d3d565b60a081016120408288611af4565b81810360208301526120528187611b27565b905081810360408301526120668186611b27565b9050818103606083015261207a8185611b27565b9050818103608083015261208e8184611b27565b979650505050505050565b805160009060c08401906120ad8582611af4565b50602083015184820360208601526120c58282611b27565b915050604083015184820360408601526120df8282611b27565b915050606083015184820360608601526120f98282611b27565b915050608083015184820360808601526121138282611b27565b91505060a083015184820360a0860152611bd38282611b27565b6000611be88383612099565b6000612143825190565b8084526020840193508360208202850161215d8560200190565b8060005b85811015611c48578484038952815161217a858261212d565b94506020830160209a909a0199925050600101612161565b60208082528101611be88184612139565b805160a0808452600091908401906121bb8282611b27565b915050602083015184820360208601526121d58282611b27565b91505060408301516121ea6040860182611f47565b50606083015184820360608601526122028282611b27565b9150506080830151611d356080860182611f4d565b6000611be883836121a3565b600061222d825190565b808452602084019350836020820285016122478560200190565b8060005b85811015611c4857848403895281516122648582612217565b94506020830160209a909a019992505060010161224b565b60208082528101611be88184612223565b60208101611add8284611f47565b634e487b7160e01b600052602260045260246000fd5b6002810460018216806122c557607f821691505b6020821081036122d7576122d761229b565b50919050565b6000611add6122e98381565b90565b6122f5836122dd565b81546008840282811b60001990911b908116901990911617825550505050565b60006123228184846122ec565b505050565b818110156123425761233a600082612315565b600101612327565b5050565b601f821115612322576000818152602090206020601f8501048101602085101561236d5750805b61237f6020601f860104830182612327565b5050505050565b815167ffffffffffffffff8111156123a0576123a0611c66565b6123aa82546122b1565b6123b5828285612346565b6020601f8311600181146123e957600084156123d15750858201515b600019600886021c1981166002860217865550612442565b600085815260208120601f198616915b8281101561241957888501518255602094850194600190920191016123f9565b868310156124355784890151600019601f89166008021c191682555b6001600288020188555050505b505050505050565b634e487b7160e01b600052603260045260246000fd5b634e487b7160e01b600052601160045260246000fd5b6000600019820361248957612489612460565b5060010190565b81810381811115611add57611add612460565b601281526000602082017f496e76616c69642066696c6520696e6465780000000000000000000000000000815291505b5060200190565b60208082528101611add816124a3565b81810280821583820485141761116957611169612460565b60208082527f496e73756666696369656e742066756e647320746f2062757920612066696c65910190815260006124d3565b60208082528101611add81612502565b60008154612551816122b1565b600182168015612568576001811461257d576125ad565b60ff19831686528115158202860193506125ad565b60008581526020902060005b838110156125a557815488820152600190910190602001612589565b838801955050505b50505092915050565b6000611be8828461254456fea2646970667358221220b3b043cf78f21df0927e8e4c680fae61d2306097af93848abea333e844af6da864736f6c63430008110033",
  "linkReferences": {},
  "deployedLinkReferences": {}
}